:020000040800F2
:10000000080800208901000825180008FB160008D0
:10001000211800088F0200085F1B00080000000084
:10002000000000000000000000000000551800085B
:100030009302000800000000291800085718000863
:10004000A3010008A3010008A3010008A301000800
:10005000A3010008A3010008A3010008A3010008F0
:10006000A3010008A3010008A3010008A3010008E0
:10007000A3010008A3010008A3010008A3010008D0
:10008000A3010008A3010008A3010008A3010008C0
:10009000A3010008A3010008A3010008A3010008B0
:1000A000A3010008C9180008A3010008A301000863
:1000B000A3010008A3010008A3010008A301000890
:1000C000A3010008A3010008A3010008A301000880
:1000D000A3010008A3010008A3010008A301000870
:1000E000A3010008A3010008A301000800F002F822
:1000F00000F03AF80AA090E8000C82448344AAF188
:100100000107DA4501D100F02FF8AFF2090EBAE885
:100110000F0013F0010F18BFFB1A43F0010318473B
:10012000C01A0000E01A0000103A24BF78C878C155
:10013000FAD8520724BF30C830C144BF04680C60ED
:10014000704700000023002400250026103A28BF35
:1001500078C1FBD8520728BF30C148BF0B60704739
:100160001FB51FBD10B510BD00F058F81146FFF7C0
:10017000F7FF01F013FD00F076F803B4FFF7F2FF8C
:1001800003BC00F07DF8000009488047094800479B
:10019000FEE7FEE7FEE7FEE7FEE7FEE7FEE7FEE737
:1001A000FEE7FEE704480549054A064B7047000094
:1001B000C5180008ED00000808020020080800200B
:1001C00008040020080400204FF0000200B5134688
:1001D00094469646203922BFA0E80C50A0E80C5067
:1001E000B1F12001BFF4F7AF090728BFA0E80C5018
:1001F00048BF0CC05DF804EB890028BF40F8042B11
:1002000008BF704748BF20F8022B11F0804F18BF7D
:1002100000F8012B7047704770477047754600F033
:100220002BF8AE4605006946534620F00700854688
:1002300018B020B5FFF7B6FFBDE820404FF000062C
:100240004FF000074FF000084FF0000B21F00701BE
:10025000AC46ACE8C009ACE8C009ACE8C009ACE801
:10026000C0098D46704710B50446AFF300802046A4
:10027000BDE81040FFF781BF00487047A80100208B
:1002800001491820ABBEFEE726000200704700BF00
:10029000FEE7704772B600BFFEE700002DE9F847A1
:1002A0000346002294466EE14FF0010808FA02F47A
:1002B000D1F8008008EA0400A0427DD1DFF8DCA27A
:1002C000D1F80480A8EB0A09D0453AD014DCB8F183
:1002D000030F50D009DCB8F1000F31D0B8F1010F95
:1002E0001CD0B8F1020F49D120E0B8F1110F18D09D
:1002F000B8F1120F42D11EE0B9F5881F25D006DCF7
:10030000B9F5803F20D0B9F5801F37D11AE0B9F593
:10031000001F18D0B9F5041F30D117E0D1F80CC078
:100320002DE0D1F80C8008F1040C28E0D1F80C8005
:1003300008F1080C23E0D1F80C8008F10C0C1EE049
:1003400000BF00BF00BF00BF00BF00BFD1F80880E2
:10035000B8F1000F02D14FF0040C0BE0D1F8088087
:10036000B8F1010F03D14FF0080C1C6102E04FF00F
:10037000080C5C6103E04FF0000C00E000BF00BF20
:10038000FF2801D8984601E003F104084646FF28FB
:1003900002D84FEA820803E0A2F108084FEA880871
:1003A0004746D6F800804FF00F0909FA07F928EA06
:1003B00009080CFA07F900E088E048EA0908C6F8DD
:1003C0000080D1F8048008F08058B8F1805F7DD1BA
:1003D00000BFDFF8CC81D8F8188048F00108DFF8BA
:1003E000C091C9F81880C846D8F8188008F00108EC
:1003F000CDF8008000BF00BF4FEAB9384FEA92093C
:1004000058F829504FEA82784FEA18794FF00F08D0
:1004100008FA09F825EA0805DFF88881434502D182
:100420004FF0000816E0DFF88081434502D14FF01D
:1004300001080FE0DFF87481434502D14FF0020854
:1004400008E0DFF86C81434502D14FF0030801E07A
:100450004FF004084FEA82794FEA197908FA09F84F
:1004600048EA0505DFF84C814FEA920948F829501F
:10047000D1F8048008F48038B8F5803F0AD1DFF85D
:100480003881D8F8008048EA0008DFF82C91C9F8D4
:10049000008009E0DFF82081D8F8008028EA000811
:1004A000DFF81491C9F80080D1F8048008F400380E
:1004B000B8F5003F10D1DFF8008108F10408D8F842
:1004C000008048EA0008DFF8F09000E05AE009F107
:1004D0000409C9F800800DE0DFF8DC8008F10408A9
:1004E000D8F8008028EA0008DFF8CC9009F1040968
:1004F000C9F80080D1F8048008F48018B8F5801F8E
:100500000ED1DFF8B48008F10808D8F8008048EA76
:100510000008DFF8A49009F10809C9F800800DE08F
:10052000DFF8948008F10808D8F8008028EA00086D
:10053000DFF8849009F10809C9F80080D1F8048037
:1005400008F40018B8F5001F0ED1DFF86C8008F130
:100550000C08D8F8008048EA0008DFF85C9009F140
:100560000C09C9F800800DE0DFF84C8008F10C0898
:10057000D8F8008028EA0008DFF83C9009F10C095F
:10058000C9F80080521CD1F8008028FA02F8B8F1AE
:10059000000F7FF489AEBDE8F8870000000011105D
:1005A0000010024000080140000C01400010014012
:1005B00000140140080001400004014001480068A7
:1005C00070470000080100200348006803490978CB
:1005D000084401490860704708010020100100200C
:1005E00010B50848006840F0100006490860032074
:1005F00000F0A8F80F2000F007F800F02BF800201A
:1006000010BD00000020024070B504460E4800787E
:100610004FF47A71B1FBF0F00C490968B1FBF0F5C9
:10062000284600F0E5FB08B1012070BD102C07D270
:1006300000222146501E00F047F80548046001E002
:100640000120F2E70020F0E7100100201401002053
:100650000C01002008B500BF1148806940F001007E
:100660000F4988610846806900F00100009000BFD2
:1006700000BF00BF0846C06940F08050C86108460E
:10068000C06900F08050009000BF00BF00BF054966
:10069000486820F0E06040F00070486000BF08BD8E
:1006A000001002400000014001460846002809DB16
:1006B00000F01F0301229A4043099B0003F1E0234D
:1006C000C3F8002100BF70472DE9F05F80460D465A
:1006D0001646002701F046FA074639462A463346B1
:1006E00001F00700C0F1070ABAF1040F02D94FF078
:1006F000040A01E0C0F1070AD14600F1040ABAF188
:10070000070F02D24FF0000A01E0A0F1030AD4461D
:100710004FF0010A0AFA09FAAAF1010A0AEA020AE2
:100720000AFA0CFA4FF0010B0BFA0CFBABF1010BC0
:100730000BEA030B4AEA0B042146404601F01AFA81
:10074000BDE8F09F00BF00F00702064B19684FF6A6
:10075000FF031940044B0B4343EA0221014B19608C
:1007600000BF70470CED00E00000FA0570B50446CC
:100770000D460CB9012070BD5A48006800F0070012
:10078000A8420ED25748006820F007002843554978
:1007900008600846006800F00700A84201D0012068
:1007A000E9E7207800F0020002281DD1207800F04F
:1007B0000400042805D14C48406840F4E0604A49F0
:1007C0004860207800F00800082805D146484068B5
:1007D00040F46050444948604348406820F0F000CD
:1007E000A168084340494860207800F0010078B3D0
:1007F0006068012806D13C48006800F4003090B9D8
:100800000120B8E76068022806D13748006800F088
:10081000007040B90120AEE73348006800F00200E4
:1008200008B90120A7E73048406820F0030061685C
:1008300008432D494860FFF7C1FE064609E0FFF76F
:10084000BDFE801B41F28831884202D9032092E725
:1008500007E02548406800F00C006168B0EB810FAC
:10086000EDD12048006800F00700A8420ED91D48CD
:10087000006820F0070028431A490860084600680D
:1008800000F00700A84201D0012074E7207800F0B2
:100890000400042807D11448406820F4E060E168AF
:1008A000084311494860207800F00800082808D162
:1008B0000D48406820F46050216940EAC1000A49AF
:1008C000486000F019F808494968C1F30311074A64
:1008D000515CC8400649086006480068FFF794FE6E
:1008E000002048E70020024000100240C81B00081A
:1008F000140100200C010020F0B585B00FF26C0C43
:100900009CE8E01001A8A0E8E0101CA52D68009567
:1009100000210022002300240020194D696801F005
:100920000C05F5B1042D02D0082D19D101E01548B0
:1009300019E001ADC1F38346AC5D01F4803555B1DA
:100940000F4D6D68C5F340451DF805200D4D6543FD
:10095000B5FBF2F302E00C4D04FB05F3184602E090
:1009600000BF084800BF00BF05B0F0BD020304058A
:10097000060708090A0B0C0D0E0F101001020000EB
:100980000010024000127A0000093D00F8B504464C
:100990000CB90120F8BD207800F00100002878D0C3
:1009A000F848406800F00C0004280CD0F548406876
:1009B00000F00C00082811D1F248406800F48030A3
:1009C000B0F5803F0AD1EF48006800F400300028FD
:1009D0005FD0606800285CD10120DBE700BF606861
:1009E000B0F5803F06D1E748006840F48030E54923
:1009F000086028E0606858B9E248006820F4803058
:100A0000E04908600846006820F4802008601AE089
:100A10006068B0F5A02F0BD1DA48006840F4802060
:100A2000D84908600846006840F4803008600AE051
:100A3000D448006820F48030D24908600846006835
:100A400020F48020086000BF606888B1FFF7B6FD21
:100A5000054606E0FFF7B2FD401B642801D90320DC
:100A600098E7C848006800F400300028F2D010E091
:100A7000FFF7A4FD054606E0FFF7A0FD401B642834
:100A800001D9032086E7BF48006800F40030002841
:100A9000F2D1207800F00200022857D1B94840680E
:100AA00000F00C0050B1B748406800F00C00082876
:100AB00018D1B448406800F4803098B9B148006853
:100AC00000F0020020B12069012801D0012061E777
:100AD000AC48006820F0F800616940EAC100A9490B
:100AE000086033E02069E8B10120A7490860FFF7FA
:100AF00065FD054606E0FFF761FD401B022801D9B0
:100B0000032047E79F48006800F002000028F2D069
:100B10009C48006820F0F800616940EAC1009949EA
:100B2000086013E0002098490860FFF747FD05467C
:100B300006E0FFF743FD401B022801D9032029E707
:100B40009048006800F002000028F2D1207800F000
:100B5000080008282DD1A069B8B101208B49086090
:100B6000FFF72CFD054606E0FFF728FD401B022895
:100B700001D903200EE78348406A00F002000028F4
:100B8000F2D0012000F052FE13E000207F490860FF
:100B9000FFF714FD054606E0FFF710FD401B022895
:100BA00001D90320F6E67748406A00F002000028E9
:100BB000F2D1207800F00400042873D10027714896
:100BC000C06900F0805070B900BF6E48C06940F045
:100BD00080506C49C8610846C06900F080500090A0
:100BE00000BF00BF01276A48006800F48070B0B9F8
:100BF0006748006840F4807065490860FFF7DEFCD4
:100C0000054606E0FFF7DAFC401B642801D9032003
:100C1000C0E65F48006800F480700028F2D000BF92
:100C2000E068012806D15748006A40F001005549A4
:100C3000086227E0E06858B95248006A20F00100D5
:100C4000504908620846006A20F00400086219E072
:100C5000E06805280BD14B48006A40F00400494980
:100C600008620846006A40F0010008620AE0454850
:100C7000006A20F00100434908620846006A20F03B
:100C80000400086200BFE068A0B1FFF797FC0546CA
:100C900009E0FFF793FC401B41F28831884202D9FA
:100CA000032077E622E03748006A00F002000028BF
:100CB000EFD012E0FFF782FC054608E0FFF77EFC6C
:100CC000401B41F28831884201D9032062E62D4859
:100CD000006A00F002000028F0D1012F05D1294858
:100CE000C06920F080502749C86100BFE069C8B3DF
:100CF0002448406800F00C00082860D0E069022811
:100D000048D1002020490866FFF758FC054606E058
:100D1000FFF754FC401B022801D903203AE619488A
:100D2000006800F000700028F2D1206AB0F5803F22
:100D300007D11448406820F40030A16808431149E5
:100D40004860D4E9080108430E49496821F4741148
:100D500008430C49486001200B490866FFF72EFC48
:100D6000054607E03DE0FFF729FC401B022801D9BA
:100D700003200FE60348006800F000700028F2D05E
:100D80002FE0000000100240000042428004424276
:100D900000700040002014490866FFF70FFC05466C
:100DA00006E0FFF70BFC401B022801D90320F1E508
:100DB0000E48006800F000700028F2D111E0E069F0
:100DC000012800D1E6E50948466806F48031206A2A
:100DD000814204D106F47011606A814201D0012081
:100DE000D8E50020D6E50000000042420010024095
:100DF00070B504462546681EB0F1807F01D30120FE
:100E00000FE0681E4FF0E02148610F214FF0FF30E6
:100E100000F0B0FE00204FF0E0218861072008615B
:100E2000002070BD7047704730B502460B4600BFCA
:100E300092F83C00012801D1022030BD012082F847
:100E40003C0000BF022082F83D0010684468106832
:100E5000816824F070041868044310684460104DE1
:100E60001068A8420BD01068B0F1804F07D00D4D2C
:100E70001068A84203D00C4D1068A84205D121F09B
:100E800080015868014310688160012082F83D00AC
:100E900000BF002082F83C0000BF00BFCDE700008B
:100EA000002C0140000400400008004010B504463A
:100EB0000CB9012010BD94F83D0028B9002084F839
:100EC0003C00204600F026F8022084F83D00211D59
:100ED000206800F001FD012084F8460000BF84F87E
:100EE0003E0001213F200155402001554120015580
:100EF00000BF00BF012084F8420043200155442078
:100F000001554520015500BF012084F83D00002017
:100F1000D0E7000038B5044616492068884216D14B
:100F200000BF1548806940F4006013498861084695
:100F3000806900F40060009000BF00BF00221146ED
:100F40001920FFF7C1FB1920FFF7AEFB11E0206865
:100F5000B0F1804F0DD100BF0748C06940F00100DB
:100F60000549C8610846C06900F00100009000BF53
:100F700000BF38BD002C014000100240014691F82E
:100F80003D00012801D001207047022081F83D007A
:100F9000124B086898420BD00868B0F1804F07D018
:100FA0000F4B0868984203D00E4B086898420CD14A
:100FB0000868806800F00702062A0CD008680068FC
:100FC00040F001000B68186005E00868006840F018
:100FD00001000B6818600020D6E70000002C0140DB
:100FE0000004004000080040014691F83D0001283F
:100FF00001D001207047022081F83D000868C068D8
:1010000040F001000B68D860124B086898420BD082
:101010000868B0F1804F07D00F4B0868984203D0A2
:101020000E4B086898420CD10868806800F00702EF
:10103000062A0CD00868006840F001000B681860B0
:1010400005E00868006840F001000B6818600020A7
:10105000D0E70000002C01400004004000080040E0
:101060002DE9F04104460D4600BF94F83C000128EC
:1010700002D10220BDE8F081012084F83C0000BFCD
:10108000022084F83D002068866826F0770626F462
:101090007F46206886602868502833D00CDC2028E2
:1010A00050D004DC00284BD0102851D149E0302822
:1010B00049D040284CD139E060282DD0702807D085
:1010C000B0F5805F03D0B0F5005F41D10DE040E0A6
:1010D000D5E902136A68206800F049FC2068866838
:1010E00046F077062068866033E0D5E902136A6827
:1010F000206800F03CFC2068806840F48040216853
:10110000886026E0EA686968206800F001FD5021E7
:10111000206800F037FC1CE0EA686968206800F08D
:101120000AFD6021206800F02DFC12E0EA68696881
:10113000206800F0EDFC4021206800F023FC08E06E
:1011400000BF00BF00BF2968206800F01BFC00E062
:1011500000BF00BF012084F83D0000BF002084F8DC
:101160003C0000BF00BF85E7704710B5044620680B
:101170000069C0F34000D8B12068C068C0F34000E7
:10118000B0B16FF00200216808610120207720686B
:10119000806900F0030018B12046FFF7E5FF05E085
:1011A000204600F0E7F8204600F050FA00202077B3
:1011B00020680069C0F38000D8B12068C068C0F31F
:1011C0008000B0B16FF00400216808610220207730
:1011D0002068806900F4407018B12046FFF7C4FF12
:1011E00005E0204600F0C6F8204600F02FFA002067
:1011F000207720680069C0F3C000D8B12068C068BB
:10120000C0F3C000B0B16FF008002168086104208D
:1012100020772068C06900F0030018B12046FFF76E
:10122000A3FF05E0204600F0A5F8204600F00EFAE6
:101230000020207720680069C0F30010D8B1206832
:10124000C068C0F30010B0B16FF0100021680861F1
:10125000082020772068C06900F4407018B120464B
:10126000FFF782FF05E0204600F084F8204600F0FA
:10127000EDF9002020772068006900F0010058B1E6
:101280002068C06800F0010030B16FF001002168F3
:101290000861204600F0DCF920680069C0F3C01046
:1012A00058B12068C068C0F3C01030B16FF0800042
:1012B000216808612046FFF7B5FD20680069C0F38A
:1012C000801058B12068C068C0F3801030B16FF052
:1012D000400021680861204600F00EFA206800698D
:1012E000C0F3401058B12068C068C0F3401030B15E
:1012F0006FF02000216808612046FFF794FD10BDC3
:1013000010B586B00446002002900390049005902A
:101310002068B0F1804F25D100BF1348806940F0AC
:101320000400114988610846806900F004000190BA
:1013300000BF00BF4FF40040029002200390012044
:1013400004900320059002A90848FEF7A7FF00BFFC
:101350000749486820F4407040F0E06040F4807035
:10136000486000BF06B010BD0010024000080140F8
:1013700000000140704710B504460CB9012010BDB3
:1013800094F83D0028B9002084F83C00204600F085
:1013900025F8022084F83D00211D206800F09CFA09
:1013A000012084F8460000BF84F83E0001213F2060
:1013B0000155402001554120015500BF00BF0120CB
:1013C00084F8420043200155442001554520015531
:1013D00000BF012084F83D000020D0E770470000E6
:1013E00070B504460D4615B994F83E000BE0042D87
:1013F00002D13F20005D06E0082D02D14020005DB3
:1014000001E04120005D012801D0012070BD1DB91F
:10141000022084F83E000EE0042D03D102213F207B
:10142000015508E0082D03D102214020015502E0BA
:1014300002214120015501222946206800F086FA48
:1014400019492068884201D1012000E0002028B11C
:101450002068406C40F400402168486412492068CC
:1014600088420BD02068B0F1804F07D00F49206828
:10147000884203D00E49206888420CD120688068D9
:1014800000F00706062E0CD02068006840F001002E
:101490002168086005E02068006840F001002168CC
:1014A00008600020B2E70000002C0140000400406A
:1014B0000008004030B504460D4600222946206849
:1014C00000F044FA21492068884201D1012000E05F
:1014D000002090B100BF2068006A41F2111108405D
:1014E00050B92068006A8910084028B92068406C0B
:1014F00020F400402168486400BF00BF2068006AF3
:1015000041F21111084050B92068006A8910084062
:1015100028B92068006820F001002168086000BF39
:101520001DB9012084F83E000EE0042D03D10121F5
:101530003F20015508E0082D03D10121402001552D
:1015400002E0012141200155002030BD002C014066
:1015500070B504460D46164600BF94F83C000128BD
:1015600001D1022070BD012084F83C0000BF36B1DB
:10157000042E1BD0082E31D00C2E5ED145E029461A
:10158000206800F009FA2068806940F008002168AE
:1015900088612068806920F00400216888612068E3
:1015A0008069296908432168886147E029462068E5
:1015B00000F022FA2068806940F4006021688861A8
:1015C0002068806920F480602168886120688069D3
:1015D000296940EA0120216888612FE029462068B6
:1015E00000F03EFA2068C06940F008002168C86138
:1015F0002068C06920F004002168C8612068C069C3
:10160000296908432168C86118E02946206800F06C
:101610005BFA2068C06940F400602168C8612068F6
:10162000C06920F480602168C8612068C0692969A8
:1016300040EA01202168C86100E000BF00BF00BF90
:10164000002084F83C0000BF00BF8BE7704700001B
:1016500010B504462149206888423DD120480088C1
:10166000402835D01E48008818B900211D48FFF7D2
:10167000B7FE1D4800781D490978884205DA1A48E6
:101680000078401C1849087026E0002016490870B0
:1016900017481849097800EBC1101149098830F83A
:1016A00011004FF08041896A88420BD010481149DF
:1016B000097800EBC1100A49098830F811004FF091
:1016C0008041886206480088401C0549088003E084
:1016D00000210448FFF7EEFE10BD0000002C014081
:1016E0000001002060010020030100200201002011
:1016F0000000002004010020704700BFFEE700004A
:1017000008B500BF0D48806940F020000B49886192
:101710000846806900F02000009000BF00BF00BFB5
:101720000846806940F0040088610846806900F03E
:101730000400009000BF00BF08BD00000010024080
:1017400000B587B0002003900490059006900190AA
:1017500002901548154908604FF4E1504860002197
:10176000124881604FF47A71C160002101614161CA
:10177000FFF79CFB08B1FEF78DFD4FF480500390FE
:1017800003A90A48FFF76CFC08B1FEF783FD0020AF
:101790000190029001A90548FFF746FB08B1FEF74A
:1017A00079FD07B000BD0000002C014018010020A9
:1017B00000B58DB0002009900A900B900C90079016
:1017C00008901C216846FEF7FFFC4FF0804013494B
:1017D0000860002048600021104881603221C1600B
:1017E00000210161FFF762FB08B1FEF753FD6020A5
:1017F0000090192001900020029004900022694678
:101800000648FFF7A5FE08B1FEF744FD0348FFF7C1
:10181000B2FD0248FFF774FD0DB000BD600100206D
:1018200000BFFEE700BFFEE77047000008B50849AB
:101830000968C9084FF47A72B1FBF2F14143009193
:1018400000BF00BF00994A1E00920029F9D108BDCF
:1018500014010020704710B5FEF7B6FE10BD00B5AC
:101860008FB0282105A8FEF7AFFC14216846FEF7CB
:10187000ABFC012005900004069000200790012099
:10188000099002200C90C1030D914FF4E0110E91CC
:1018900005A8FFF77BF808B1FEF7FCFC0F200090CD
:1018A00002200190002002904FF4806003900020FD
:1018B000049002216846FEF759FF08B1FEF7EAFCE2
:1018C0000FB000BD7047000010B50248FFF74DFC97
:1018D00010BD00001801002010B50268184B984296
:1018E00008D0B0F1804F05D0164B984202D0164B6D
:1018F000984203D122F070024B681A43104B984271
:1019000008D0B0F1804F05D00E4B984202D00E4B5C
:10191000984203D122F44072CB681A4322F080032C
:101920004C6943EA040202608B68C3620B688362FD
:10193000034B984201D10B6903630123436110BD3E
:10194000002C0140000400400008004030B501F0C8
:101950001F05012404FA05F3046A9C430462046A27
:1019600001F01F0502FA05F52C43046230BD30B5C5
:101970000C46816821F47F4142EA0325254329432F
:10198000816030BD0A46816821F0700142F0070392
:10199000194381607047000030B5056A25F00105E4
:1019A0000562026A4368846924F0700424F0030429
:1019B0000D682C4322F002028D682A430D4DA84287
:1019C00006D100BF22F00802CD682A4322F00402AB
:1019D000084DA84207D123F4807323F400734D69A6
:1019E0002B438D692B43436084614D6845630262DC
:1019F00030BD0000002C014030B5056A25F010050F
:101A00000562026A4368846924F4E04424F4407463
:101A10000D6844EA052422F020028D6842EA05128E
:101A20000E4DA84207D100BF22F08002CD6842EAE5
:101A3000051222F04002094DA84209D123F4806327
:101A400023F400634D6943EA85038D6943EA850306
:101A5000436084614D688563026230BD002C0140A3
:101A600030B5056A25F480750562026A4368C46969
:101A700024F0700424F003040D682C4322F4007257
:101A80008D6842EA05220F4DA84207D100BF22F41B
:101A90000062CD6842EA052222F48062094DA84224
:101AA00009D123F4805323F400534D6943EA05130D
:101AB0008D6943EA05134360C4614D68C5630262E2
:101AC00030BD0000002C014030B5056A25F480557A
:101AD0000562036A4468C26922F4E04222F440725B
:101AE0000D6842EA052223F400538D6843EA05336A
:101AF000064DA84204D124F480444D6944EA85147B
:101B00004460C2614D680564036230BD002C014031
:101B100030B50B461446026A056A25F001050562D8
:101B2000816921F0F00141EA041122F00A021A430E
:101B30008161026230BD30B50B461446056A25F05E
:101B4000100505628169026A21F4704141EA04319D
:101B500022F0A00242EA03128161026230BD00BF9E
:101B6000FEE7000002480068C0F302207047000052
:101B70000CED00E010B5002804DB0A07130E054A3F
:101B8000135406E00A07140E034A00F00F031B1F4C
:101B9000D45410BD00E400E018ED00E0FEF720FD95
:101BA000FFF75DFEFFF7ACFDFFF7CAFDFFF700FE94
:101BB0000348FFF719FA0348FFF7E0F900BFFEE713
:101BC000180100206001002000000000000000005B
:101BD00001020304060708090000000001020304D3
:101BE000001C000800000020180100002801000867
:101BF000181D000818010020F0060000440100082C
:101C0000D0270200D0270200D0270200D0270200F0
:101C10001519020015190200151902001519020004
:101C20007C2102007C2102007C2102007C21020038
:101C3000921A0200921A0200921A0200921A0200EC
:101C4000D0270200D0270200D0270200D0270200B0
:101C500015190200151902001519020015190200C4
:101C60007C2102007C2102007C2102007C210200F8
:101C7000921A921A921A0200020002000200020056
:101C8000F409F4090200F409A40675070200020031
:101C9000FA0496050200A406020075070200A406D5
:101CA000A40602000200F409A4067507020002005F
:101CB000FA0496050200A4060200750702005F08F8
:101CC0005F0802000200F409A40675070200020082
:101CD000FA0496050200A406020075070200A40695
:101CE000A40602000200F409A406750702005F08BA
:101CF0005F0802000200020002000200020002006F
:101D0000400005000000000000000000100000007E
:081D1000010000000024F400B2
:04000005080000ED02
:00000001FF
